{
  "_format": "hh-sol-artifact-1",
  "contractName": "WavePortal",
  "sourceName": "contracts/WavePortal.sol",
  "abi": [
    {
      "inputs": [],
      "stateMutability": "payable",
      "type": "constructor"
    },
    {
      "anonymous": false,
      "inputs": [
        {
          "indexed": true,
          "internalType": "address",
          "name": "from",
          "type": "address"
        },
        {
          "indexed": false,
          "internalType": "uint256",
          "name": "timestamp",
          "type": "uint256"
        },
        {
          "indexed": false,
          "internalType": "string",
          "name": "message",
          "type": "string"
        }
      ],
      "name": "NewWave",
      "type": "event"
    },
    {
      "inputs": [],
      "name": "getAllWaves",
      "outputs": [
        {
          "components": [
            {
              "internalType": "address",
              "name": "waver",
              "type": "address"
            },
            {
              "internalType": "string",
              "name": "message",
              "type": "string"
            },
            {
              "internalType": "uint256",
              "name": "timestamp",
              "type": "uint256"
            }
          ],
          "internalType": "struct WavePortal.Wave[]",
          "name": "",
          "type": "tuple[]"
        }
      ],
      "stateMutability": "view",
      "type": "function"
    },
    {
      "inputs": [],
      "name": "getTotalWaves",
      "outputs": [
        {
          "internalType": "uint256",
          "name": "",
          "type": "uint256"
        }
      ],
      "stateMutability": "view",
      "type": "function"
    },
    {
      "inputs": [],
      "name": "getWaver",
      "outputs": [],
      "stateMutability": "view",
      "type": "function"
    },
    {
      "inputs": [
        {
          "internalType": "address",
          "name": "",
          "type": "address"
        }
      ],
      "name": "lastWavedAt",
      "outputs": [
        {
          "internalType": "uint256",
          "name": "",
          "type": "uint256"
        }
      ],
      "stateMutability": "view",
      "type": "function"
    },
    {
      "inputs": [
        {
          "internalType": "string",
          "name": "_message",
          "type": "string"
        }
      ],
      "name": "wave",
      "outputs": [],
      "stateMutability": "nonpayable",
      "type": "function"
    },
    {
      "inputs": [],
      "name": "waver",
      "outputs": [
        {
          "internalType": "address",
          "name": "",
          "type": "address"
        }
      ],
      "stateMutability": "view",
      "type": "function"
    }
  ],
  "bytecode": "0x6080604052620000336040518060600160405280604081526020016200183c604091396200005b60201b620008c21760201c565b60644442620000439190620001a8565b6200004f919062000245565b600181905550620002ec565b620000fb8160405160240162000072919062000168565b6040516020818303038152906040527f41304fac000000000000000000000000000000000000000000000000000000007bffffffffffffffffffffffffffffffffffffffffffffffffffffffff19166020820180517bffffffffffffffffffffffffffffffffffffffffffffffffffffffff8381831617835250505050620000fe60201b60201c565b50565b60008151905060006a636f6e736f6c652e6c6f679050602083016000808483855afa5050505050565b600062000134826200018c565b62000140818562000197565b9350620001528185602086016200020f565b6200015d81620002db565b840191505092915050565b6000602082019050818103600083015262000184818462000127565b905092915050565b600081519050919050565b600082825260208201905092915050565b6000620001b58262000205565b9150620001c28362000205565b9250827fffffffffffffffffffffffffffffffffffffffffffffffffffffffffffffffff03821115620001fa57620001f96200027d565b5b828201905092915050565b6000819050919050565b60005b838110156200022f57808201518184015260208101905062000212565b838111156200023f576000848401525b50505050565b6000620002528262000205565b91506200025f8362000205565b925082620002725762000271620002ac565b5b828206905092915050565b7f4e487b7100000000000000000000000000000000000000000000000000000000600052601160045260246000fd5b7f4e487b7100000000000000000000000000000000000000000000000000000000600052601260045260246000fd5b6000601f19601f8301169050919050565b61154080620002fc6000396000f3fe608060405234801561001057600080fd5b50600436106100625760003560e01c8063449d46c0146100675780639a2cdc0814610083578063a42a4663146100a1578063bd43a908146100d1578063c4a7e0bd146100ef578063e4b62ff5146100f9575b600080fd5b610081600480360381019061007c9190610ca4565b610117565b005b61008b6105d8565b6040516100989190611071565b60405180910390f35b6100bb60048036038101906100b69190610c7b565b610623565b6040516100c89190611071565b60405180910390f35b6100d961063b565b6040516100e69190610f28565b60405180910390f35b6100f761078c565b005b61010161089c565b60405161010e9190610f0d565b60405180910390f35b42603c600560003373ffffffffffffffffffffffffffffffffffffffff1673ffffffffffffffffffffffffffffffffffffffff168152602001908152602001600020546101649190611183565b106101a4576040517f08c379a000000000000000000000000000000000000000000000000000000000815260040161019b90611051565b60405180910390fd5b42600560003373ffffffffffffffffffffffffffffffffffffffff1673ffffffffffffffffffffffffffffffffffffffff1681526020019081526020016000208190555060016000808282546101fa9190611183565b9250508190555033600360006101000a81548173ffffffffffffffffffffffffffffffffffffffff021916908373ffffffffffffffffffffffffffffffffffffffff1602179055506004600360009054906101000a900473ffffffffffffffffffffffffffffffffffffffff169080600181540180825580915050600190039060005260206000200160009091909190916101000a81548173ffffffffffffffffffffffffffffffffffffffff021916908373ffffffffffffffffffffffffffffffffffffffff1602179055506103076040518060400160405280601a81526020017f25732068617320776176656420772f206d657373616765202573000000000000815250338361095b565b600260405180606001604052803373ffffffffffffffffffffffffffffffffffffffff16815260200183815260200142815250908060018154018082558091505060019003906000526020600020906003020160009091909190915060008201518160000160006101000a81548173ffffffffffffffffffffffffffffffffffffffff021916908373ffffffffffffffffffffffffffffffffffffffff16021790555060208201518160010190805190602001906103c6929190610b5b565b50604082015181600201555050606460015442446103e49190611183565b6103ee9190611183565b6103f891906112ba565b60018190555061043f6040518060400160405280601681526020017f52616e646f6d20232067656e6572617465643a202564000000000000000000008152506001546109fa565b603260015411610585576104886040518060400160405280600781526020017f257320776f6e210000000000000000000000000000000000000000000000000081525033610a96565b6000655af3107a40009050478111156104d6576040517f08c379a00000000000000000000000000000000000000000000000000000000081526004016104cd90611031565b60405180910390fd5b60003373ffffffffffffffffffffffffffffffffffffffff16826040516104fc90610ef8565b60006040518083038185875af1925050503d8060008114610539576040519150601f19603f3d011682016040523d82523d6000602084013e61053e565b606091505b5050905080610582576040517f08c379a000000000000000000000000000000000000000000000000000000000815260040161057990611011565b60405180910390fd5b50505b3373ffffffffffffffffffffffffffffffffffffffff167f5f7e16dc676677766a70e9c5628aa6c54ddb8b6e5188e2ae1e1f17f1ffbea71642836040516105cd92919061108c565b60405180910390a250565b600061061b6040518060400160405280601781526020017f5765206861766520256420746f74616c207761766573210000000000000000008152506000546109fa565b600054905090565b60056020528060005260406000206000915090505481565b60606002805480602002602001604051908101604052809291908181526020016000905b8282101561078357838290600052602060002090600302016040518060600160405290816000820160009054906101000a900473ffffffffffffffffffffffffffffffffffffffff1673ffffffffffffffffffffffffffffffffffffffff1673ffffffffffffffffffffffffffffffffffffffff1681526020016001820180546106e890611257565b80601f016020809104026020016040519081016040528092919081815260200182805461071490611257565b80156107615780601f1061073657610100808354040283529160200191610761565b820191906000526020600020905b81548152906001019060200180831161074457829003601f168201915b505050505081526020016002820154815250508152602001906001019061065f565b50505050905090565b6108136040518060600160405280602581526020016114c06025913960046000815481106107e3577f4e487b7100000000000000000000000000000000000000000000000000000000600052603260045260246000fd5b9060005260206000200160009054906101000a900473ffffffffffffffffffffffffffffffffffffffff16610a96565b61089a6040518060600160405280602681526020016114e560269139600460018154811061086a577f4e487b7100000000000000000000000000000000000000000000000000000000600052603260045260246000fd5b9060005260206000200160009054906101000a900473ffffffffffffffffffffffffffffffffffffffff16610a96565b565b600360009054906101000a900473ffffffffffffffffffffffffffffffffffffffff1681565b610958816040516024016108d69190610f4a565b6040516020818303038152906040527f41304fac000000000000000000000000000000000000000000000000000000007bffffffffffffffffffffffffffffffffffffffffffffffffffffffff19166020820180517bffffffffffffffffffffffffffffffffffffffffffffffffffffffff8381831617835250505050610b32565b50565b6109f583838360405160240161097393929190610f9c565b6040516020818303038152906040527fe0e9ad4f000000000000000000000000000000000000000000000000000000007bffffffffffffffffffffffffffffffffffffffffffffffffffffffff19166020820180517bffffffffffffffffffffffffffffffffffffffffffffffffffffffff8381831617835250505050610b32565b505050565b610a928282604051602401610a10929190610fe1565b6040516020818303038152906040527f9710a9d0000000000000000000000000000000000000000000000000000000007bffffffffffffffffffffffffffffffffffffffffffffffffffffffff19166020820180517bffffffffffffffffffffffffffffffffffffffffffffffffffffffff8381831617835250505050610b32565b5050565b610b2e8282604051602401610aac929190610f6c565b6040516020818303038152906040527f319af333000000000000000000000000000000000000000000000000000000007bffffffffffffffffffffffffffffffffffffffffffffffffffffffff19166020820180517bffffffffffffffffffffffffffffffffffffffffffffffffffffffff8381831617835250505050610b32565b5050565b60008151905060006a636f6e736f6c652e6c6f679050602083016000808483855afa5050505050565b828054610b6790611257565b90600052602060002090601f016020900481019282610b895760008555610bd0565b82601f10610ba257805160ff1916838001178555610bd0565b82800160010185558215610bd0579182015b82811115610bcf578251825591602001919060010190610bb4565b5b509050610bdd9190610be1565b5090565b5b80821115610bfa576000816000905550600101610be2565b5090565b6000610c11610c0c846110e1565b6110bc565b905082815260208101848484011115610c2957600080fd5b610c34848285611215565b509392505050565b600081359050610c4b816114a8565b92915050565b600082601f830112610c6257600080fd5b8135610c72848260208601610bfe565b91505092915050565b600060208284031215610c8d57600080fd5b6000610c9b84828501610c3c565b91505092915050565b600060208284031215610cb657600080fd5b600082013567ffffffffffffffff811115610cd057600080fd5b610cdc84828501610c51565b91505092915050565b6000610cf18383610e8a565b905092915050565b610d02816111d9565b82525050565b610d11816111d9565b82525050565b6000610d2282611122565b610d2c8185611145565b935083602082028501610d3e85611112565b8060005b85811015610d7a5784840389528151610d5b8582610ce5565b9450610d6683611138565b925060208a01995050600181019050610d42565b50829750879550505050505092915050565b6000610d978261112d565b610da18185611161565b9350610db1818560208601611224565b610dba816113a7565b840191505092915050565b6000610dd08261112d565b610dda8185611172565b9350610dea818560208601611224565b610df3816113a7565b840191505092915050565b6000610e0b602783611172565b9150610e16826113b8565b604082019050919050565b6000610e2e602583611172565b9150610e3982611407565b604082019050919050565b6000610e51602383611172565b9150610e5c82611456565b604082019050919050565b6000610e74600083611156565b9150610e7f826114a5565b600082019050919050565b6000606083016000830151610ea26000860182610cf9565b5060208301518482036020860152610eba8282610d8c565b9150506040830151610ecf6040860182610eda565b508091505092915050565b610ee38161120b565b82525050565b610ef28161120b565b82525050565b6000610f0382610e67565b9150819050919050565b6000602082019050610f226000830184610d08565b92915050565b60006020820190508181036000830152610f428184610d17565b905092915050565b60006020820190508181036000830152610f648184610dc5565b905092915050565b60006040820190508181036000830152610f868185610dc5565b9050610f956020830184610d08565b9392505050565b60006060820190508181036000830152610fb68186610dc5565b9050610fc56020830185610d08565b8181036040830152610fd78184610dc5565b9050949350505050565b60006040820190508181036000830152610ffb8185610dc5565b905061100a6020830184610ee9565b9392505050565b6000602082019050818103600083015261102a81610dfe565b9050919050565b6000602082019050818103600083015261104a81610e21565b9050919050565b6000602082019050818103600083015261106a81610e44565b9050919050565b60006020820190506110866000830184610ee9565b92915050565b60006040820190506110a16000830185610ee9565b81810360208301526110b38184610dc5565b90509392505050565b60006110c66110d7565b90506110d28282611289565b919050565b6000604051905090565b600067ffffffffffffffff8211156110fc576110fb611378565b5b611105826113a7565b9050602081019050919050565b6000819050602082019050919050565b600081519050919050565b600081519050919050565b6000602082019050919050565b600082825260208201905092915050565b600081905092915050565b600082825260208201905092915050565b600082825260208201905092915050565b600061118e8261120b565b91506111998361120b565b9250827fffffffffffffffffffffffffffffffffffffffffffffffffffffffffffffffff038211156111ce576111cd6112eb565b5b828201905092915050565b60006111e4826111eb565b9050919050565b600073ffffffffffffffffffffffffffffffffffffffff82169050919050565b6000819050919050565b82818337600083830152505050565b60005b83811015611242578082015181840152602081019050611227565b83811115611251576000848401525b50505050565b6000600282049050600182168061126f57607f821691505b6020821081141561128357611282611349565b5b50919050565b611292826113a7565b810181811067ffffffffffffffff821117156112b1576112b0611378565b5b80604052505050565b60006112c58261120b565b91506112d08361120b565b9250826112e0576112df61131a565b5b828206905092915050565b7f4e487b7100000000000000000000000000000000000000000000000000000000600052601160045260246000fd5b7f4e487b7100000000000000000000000000000000000000000000000000000000600052601260045260246000fd5b7f4e487b7100000000000000000000000000000000000000000000000000000000600052602260045260246000fd5b7f4e487b7100000000000000000000000000000000000000000000000000000000600052604160045260246000fd5b6000601f19601f8301169050919050565b7f4661696c656420746f207769746864726177206d6f6e65792066726f6d20636f60008201527f6e74726163742e00000000000000000000000000000000000000000000000000602082015250565b7f596f207468697320636f6e74726163742069732062726f6b652c20747279206c60008201527f617465722e000000000000000000000000000000000000000000000000000000602082015250565b7f57616974203630207365636f6e6473206265666f726520776176696e6720616760008201527f61696e0000000000000000000000000000000000000000000000000000000000602082015250565b50565b6114b1816111d9565b81146114bc57600080fd5b5056fe5468697320697320746865206669727374206164647265737320746861742077617665643a5468697320697320746865207365636f6e64206164647265737320746861742077617665643aa2646970667358221220ac750bda02336c5105ab3eac78ad8988b6be7ceb2701f449247cd212c051489b64736f6c634300080400334875727261792c206d7920666972737420736d61727420636f6e74726163742e2057656c636f6d6520746f2074686520776f726c64206c6974746c65206f6e65",
  "linkReferences": {},
  "deployedLinkReferences": {}
}